{
  "contractName": "CampaignCreator",
  "abi": [
    {
      "constant": true,
      "inputs": [
        {
          "name": "",
          "type": "uint256"
        }
      ],
      "name": "campaigns",
      "outputs": [
        {
          "name": "",
          "type": "address"
        }
      ],
      "payable": false,
      "stateMutability": "view",
      "type": "function"
    },
    {
      "constant": false,
      "inputs": [
        {
          "name": "minContribution",
          "type": "uint256"
        },
        {
          "name": "description",
          "type": "string"
        }
      ],
      "name": "createCampaign",
      "outputs": [],
      "payable": false,
      "stateMutability": "nonpayable",
      "type": "function"
    },
    {
      "constant": true,
      "inputs": [],
      "name": "getCampaigns",
      "outputs": [
        {
          "name": "",
          "type": "address[]"
        }
      ],
      "payable": false,
      "stateMutability": "view",
      "type": "function"
    }
  ],
  "bytecode": "0x608060405234801561001057600080fd5b5061110f806100206000396000f300608060405260043610610057576000357c0100000000000000000000000000000000000000000000000000000000900463ffffffff168063141961bc1461005c5780634220d656146100c9578063a6b036331461013c575b600080fd5b34801561006857600080fd5b50610087600480360381019080803590602001909291905050506101a8565b604051808273ffffffffffffffffffffffffffffffffffffffff1673ffffffffffffffffffffffffffffffffffffffff16815260200191505060405180910390f35b3480156100d557600080fd5b5061013a60048036038101908080359060200190929190803590602001908201803590602001908080601f01602080910402602001604051908101604052809392919081815260200183838082843782019150505050505091929192905050506101e6565b005b34801561014857600080fd5b50610151610326565b6040518080602001828103825283818151815260200191508051906020019060200280838360005b83811015610194578082015181840152602081019050610179565b505050509050019250505060405180910390f35b6000818154811015156101b757fe5b906000526020600020016000915054906101000a900473ffffffffffffffffffffffffffffffffffffffff1681565b60003383836101f36103b4565b808473ffffffffffffffffffffffffffffffffffffffff1673ffffffffffffffffffffffffffffffffffffffff16815260200183815260200180602001828103825283818151815260200191508051906020019080838360005b8381101561026857808201518184015260208101905061024d565b50505050905090810190601f1680156102955780820380516001836020036101000a031916815260200191505b50945050505050604051809103906000f0801580156102b8573d6000803e3d6000fd5b50905060008190806001815401808255809150509060018203906000526020600020016000909192909190916101000a81548173ffffffffffffffffffffffffffffffffffffffff021916908373ffffffffffffffffffffffffffffffffffffffff16021790555050505050565b606060008054806020026020016040519081016040528092919081815260200182805480156103aa57602002820191906000526020600020905b8160009054906101000a900473ffffffffffffffffffffffffffffffffffffffff1673ffffffffffffffffffffffffffffffffffffffff1681526020019060010190808311610360575b5050505050905090565b604051610d1f806103c5833901905600608060405234801561001057600080fd5b50604051610d1f380380610d1f833981018060405281019080805190602001909291908051906020019092919080518201929190505050826000806101000a81548173ffffffffffffffffffffffffffffffffffffffff021916908373ffffffffffffffffffffffffffffffffffffffff1602179055508160018190555080600290805190602001906100a49291906100ad565b50505050610152565b828054600181600116156101000203166002900490600052602060002090601f016020900481019282601f106100ee57805160ff191683800117855561011c565b8280016001018555821561011c579182015b8281111561011b578251825591602001919060010190610100565b5b509050610129919061012d565b5090565b61014f91905b8082111561014b576000816000905550600101610133565b5090565b90565b610bbe806101616000396000f3006080604052600436106100a4576000357c0100000000000000000000000000000000000000000000000000000000900463ffffffff16806303441006146100a9578063110842cb146100d6578063119f87471461016657806313395ffb14610170578063481c6a751461019b578063647c75e2146101f257806381d12c581461024d5780638a9cfd551461033f578063937e09b1146103d2578063d7d1bbdb146103fd575b600080fd5b3480156100b557600080fd5b506100d46004803603810190808035906020019092919050505061042a565b005b3480156100e257600080fd5b506100eb610574565b6040518080602001828103825283818151815260200191508051906020019080838360005b8381101561012b578082015181840152602081019050610110565b50505050905090810190601f1680156101585780820380516001836020036101000a031916815260200191505b509250505060405180910390f35b61016e610612565b005b34801561017c57600080fd5b5061018561068e565b6040518082815260200191505060405180910390f35b3480156101a757600080fd5b506101b0610694565b604051808273ffffffffffffffffffffffffffffffffffffffff1673ffffffffffffffffffffffffffffffffffffffff16815260200191505060405180910390f35b3480156101fe57600080fd5b50610233600480360381019080803573ffffffffffffffffffffffffffffffffffffffff1690602001909291905050506106b9565b604051808215151515815260200191505060405180910390f35b34801561025957600080fd5b50610278600480360381019080803590602001909291905050506106d9565b60405180806020018681526020018573ffffffffffffffffffffffffffffffffffffffff1673ffffffffffffffffffffffffffffffffffffffff16815260200184151515158152602001838152602001828103825287818151815260200191508051906020019080838360005b838110156103005780820151818401526020810190506102e5565b50505050905090810190601f16801561032d5780820380516001836020036101000a031916815260200191505b50965050505050505060405180910390f35b34801561034b57600080fd5b506103d0600480360381019080803590602001908201803590602001908080601f016020809104026020016040519081016040528093929190818152602001838380828437820191505050505050919291929080359060200190929190803573ffffffffffffffffffffffffffffffffffffffff1690602001909291905050506107e3565b005b3480156103de57600080fd5b506103e7610959565b6040518082815260200191505060405180910390f35b34801561040957600080fd5b506104286004803603810190808035906020019092919050505061095f565b005b60008060009054906101000a900473ffffffffffffffffffffffffffffffffffffffff1673ffffffffffffffffffffffffffffffffffffffff163373ffffffffffffffffffffffffffffffffffffffff1614151561048757600080fd5b60058281548110151561049657fe5b9060005260206000209060050201905060026004548115156104b457fe5b0481600401541115156104c657600080fd5b8060020160149054906101000a900460ff161515156104e457600080fd5b8060020160009054906101000a900473ffffffffffffffffffffffffffffffffffffffff1673ffffffffffffffffffffffffffffffffffffffff166108fc82600101549081150290604051600060405180830381858888f19350505050158015610552573d6000803e3d6000fd5b5060018160020160146101000a81548160ff0219169083151502179055505050565b60028054600181600116156101000203166002900480601f01602080910402602001604051908101604052809291908181526020018280546001816001161561010002031660029004801561060a5780601f106105df5761010080835404028352916020019161060a565b820191906000526020600020905b8154815290600101906020018083116105ed57829003601f168201915b505050505081565b6001543411151561062257600080fd5b6001600360003373ffffffffffffffffffffffffffffffffffffffff1673ffffffffffffffffffffffffffffffffffffffff16815260200190815260200160002060006101000a81548160ff021916908315150217905550600460008154809291906001019190505550565b60045481565b6000809054906101000a900473ffffffffffffffffffffffffffffffffffffffff1681565b60036020528060005260406000206000915054906101000a900460ff1681565b6005818154811015156106e857fe5b9060005260206000209060050201600091509050806000018054600181600116156101000203166002900480601f0160208091040260200160405190810160405280929190818152602001828054600181600116156101000203166002900480156107945780601f1061076957610100808354040283529160200191610794565b820191906000526020600020905b81548152906001019060200180831161077757829003601f168201915b5050505050908060010154908060020160009054906101000a900473ffffffffffffffffffffffffffffffffffffffff16908060020160149054906101000a900460ff16908060040154905085565b6107eb610aa5565b6000809054906101000a900473ffffffffffffffffffffffffffffffffffffffff1673ffffffffffffffffffffffffffffffffffffffff163373ffffffffffffffffffffffffffffffffffffffff1614151561084657600080fd5b60a0604051908101604052808581526020018481526020018373ffffffffffffffffffffffffffffffffffffffff168152602001600015158152602001600081525090506005819080600181540180825580915050906001820390600052602060002090600502016000909192909190915060008201518160000190805190602001906108d4929190610aed565b506020820151816001015560408201518160020160006101000a81548173ffffffffffffffffffffffffffffffffffffffff021916908373ffffffffffffffffffffffffffffffffffffffff16021790555060608201518160020160146101000a81548160ff0219169083151502179055506080820151816004015550505050505050565b60015481565b6000600360003373ffffffffffffffffffffffffffffffffffffffff1673ffffffffffffffffffffffffffffffffffffffff16815260200190815260200160002060009054906101000a900460ff1615156109b957600080fd5b6005828154811015156109c857fe5b906000526020600020906005020190508060030160003373ffffffffffffffffffffffffffffffffffffffff1673ffffffffffffffffffffffffffffffffffffffff16815260200190815260200160002060009054906101000a900460ff16151515610a3357600080fd5b60018160030160003373ffffffffffffffffffffffffffffffffffffffff1673ffffffffffffffffffffffffffffffffffffffff16815260200190815260200160002060006101000a81548160ff02191690831515021790555080600401600081548092919060010191905055505050565b60a0604051908101604052806060815260200160008152602001600073ffffffffffffffffffffffffffffffffffffffff168152602001600015158152602001600081525090565b828054600181600116156101000203166002900490600052602060002090601f016020900481019282601f10610b2e57805160ff1916838001178555610b5c565b82800160010185558215610b5c579182015b82811115610b5b578251825591602001919060010190610b40565b5b509050610b699190610b6d565b5090565b610b8f91905b80821115610b8b576000816000905550600101610b73565b5090565b905600a165627a7a723058203228859d0d6f733efce582eb26602e8800d526b5f5b9c03c4659598f7f5362fa0029a165627a7a72305820d3ac829c16a9e5112ab16152faa77696eadc52cce39700875d7130e3cfff95690029",
  "source": "pragma solidity 0.4.24;\r\n\r\n\r\ncontract CampaignCreator {\r\n    address[] public campaigns;\r\n    \r\n    function createCampaign(uint minContribution, string description) public {\r\n        address newCampaign = new CrowdCollab(msg.sender, minContribution, description);\r\n        \r\n        campaigns.push(newCampaign);\r\n    }\r\n    \r\n    function getCampaigns() public view returns(address[]) {\r\n        return campaigns;\r\n    }\r\n}\r\n\r\ncontract CrowdCollab{\r\n    \r\n    struct Request {\r\n        string description;\r\n        uint amount;\r\n        address recipient;\r\n        bool complete;\r\n        mapping(address=>bool) approvals;\r\n        uint approvalCount; \r\n    }\r\n    \r\n    address public manager;\r\n    uint public minimumContribution;\r\n    string public campaignDescription;\r\n    mapping(address=>bool)public supporters;\r\n    uint public numberSuporters;\r\n    Request[] public requests;\r\n    \r\n    modifier managerOnly() {\r\n        require(msg.sender == manager);\r\n        _;\r\n    }\r\n    \r\n    modifier supporterOnly() {\r\n        require(supporters[msg.sender]);\r\n        _;\r\n    }\r\n    \r\n    \r\n    constructor(address creator, uint minContribution, string description) public {\r\n        manager = creator;\r\n        minimumContribution = minContribution;\r\n        campaignDescription = description;\r\n    }\r\n    \r\n    function support() public payable {\r\n        require(msg.value > minimumContribution);\r\n        \r\n        supporters[msg.sender] = true;\r\n        numberSuporters++;\r\n    }\r\n    \r\n    function createRequest(string description, uint amount, address recipient) public managerOnly {\r\n        Request memory newRequest = Request({\r\n                description: description,\r\n                amount: amount,\r\n                recipient: recipient,\r\n                complete: false,\r\n                approvalCount: 0\r\n            });\r\n            \r\n        requests.push(newRequest);\r\n    }\r\n    \r\n    function approveRequest(uint requestId) public supporterOnly {\r\n        Request storage request = requests[requestId];\r\n        \r\n        require(!request.approvals[msg.sender]);\r\n        request.approvals[msg.sender] = true;\r\n        request.approvalCount++;\r\n    }\r\n    \r\n    function finalizeRequest(uint requestId) public managerOnly {\r\n        Request storage request = requests[requestId];\r\n        \r\n        require(request.approvalCount > (numberSuporters/2));\r\n        require(!request.complete);\r\n        \r\n        request.recipient.transfer(request.amount);        \r\n        request.complete = true;\r\n    }\r\n}\r\n",
  "sourcePath": "/projects/crowdCollabApp/contracts/CrowdCollab.sol",
  "compiler": {
    "name": "solc",
    "version": "0.4.24+commit.e67f0147.Emscripten.clang"
  },
  "schemaVersion": "2.0.1",
  "updatedAt": "2018-12-20T10:39:44.713Z"
}